{
  "contractName": "Dex",
  "abi": [
    {
      "anonymous": false,
      "inputs": [
        {
          "indexed": true,
          "internalType": "address",
          "name": "previousOwner",
          "type": "address"
        },
        {
          "indexed": true,
          "internalType": "address",
          "name": "newOwner",
          "type": "address"
        }
      ],
      "name": "OwnershipTransferred",
      "type": "event"
    },
    {
      "inputs": [
        {
          "internalType": "bytes32",
          "name": "ticker",
          "type": "bytes32"
        },
        {
          "internalType": "address",
          "name": "tokenAddress",
          "type": "address"
        }
      ],
      "name": "addToken",
      "outputs": [],
      "stateMutability": "nonpayable",
      "type": "function"
    },
    {
      "inputs": [
        {
          "internalType": "address",
          "name": "",
          "type": "address"
        },
        {
          "internalType": "bytes32",
          "name": "",
          "type": "bytes32"
        }
      ],
      "name": "balances",
      "outputs": [
        {
          "internalType": "uint256",
          "name": "",
          "type": "uint256"
        }
      ],
      "stateMutability": "view",
      "type": "function"
    },
    {
      "inputs": [
        {
          "internalType": "uint256",
          "name": "amount",
          "type": "uint256"
        },
        {
          "internalType": "bytes32",
          "name": "ticker",
          "type": "bytes32"
        }
      ],
      "name": "deposit",
      "outputs": [],
      "stateMutability": "nonpayable",
      "type": "function"
    },
    {
      "inputs": [],
      "name": "depositEth",
      "outputs": [],
      "stateMutability": "payable",
      "type": "function"
    },
    {
      "inputs": [],
      "name": "nextOrderId",
      "outputs": [
        {
          "internalType": "uint256",
          "name": "",
          "type": "uint256"
        }
      ],
      "stateMutability": "view",
      "type": "function"
    },
    {
      "inputs": [
        {
          "internalType": "bytes32",
          "name": "",
          "type": "bytes32"
        },
        {
          "internalType": "uint256",
          "name": "",
          "type": "uint256"
        },
        {
          "internalType": "uint256",
          "name": "",
          "type": "uint256"
        }
      ],
      "name": "orderbook",
      "outputs": [
        {
          "internalType": "uint256",
          "name": "id",
          "type": "uint256"
        },
        {
          "internalType": "address",
          "name": "trader",
          "type": "address"
        },
        {
          "internalType": "enum Dex.Side",
          "name": "side",
          "type": "uint8"
        },
        {
          "internalType": "bytes32",
          "name": "ticker",
          "type": "bytes32"
        },
        {
          "internalType": "uint256",
          "name": "amount",
          "type": "uint256"
        },
        {
          "internalType": "uint256",
          "name": "price",
          "type": "uint256"
        }
      ],
      "stateMutability": "view",
      "type": "function"
    },
    {
      "inputs": [],
      "name": "owner",
      "outputs": [
        {
          "internalType": "address",
          "name": "",
          "type": "address"
        }
      ],
      "stateMutability": "view",
      "type": "function"
    },
    {
      "inputs": [],
      "name": "renounceOwnership",
      "outputs": [],
      "stateMutability": "nonpayable",
      "type": "function"
    },
    {
      "inputs": [
        {
          "internalType": "uint256",
          "name": "",
          "type": "uint256"
        }
      ],
      "name": "tokenList",
      "outputs": [
        {
          "internalType": "bytes32",
          "name": "",
          "type": "bytes32"
        }
      ],
      "stateMutability": "view",
      "type": "function"
    },
    {
      "inputs": [
        {
          "internalType": "bytes32",
          "name": "",
          "type": "bytes32"
        }
      ],
      "name": "tokenMapping",
      "outputs": [
        {
          "internalType": "bytes32",
          "name": "ticker",
          "type": "bytes32"
        },
        {
          "internalType": "address",
          "name": "tokenAddress",
          "type": "address"
        }
      ],
      "stateMutability": "view",
      "type": "function"
    },
    {
      "inputs": [
        {
          "internalType": "address",
          "name": "newOwner",
          "type": "address"
        }
      ],
      "name": "transferOwnership",
      "outputs": [],
      "stateMutability": "nonpayable",
      "type": "function"
    },
    {
      "inputs": [
        {
          "internalType": "uint256",
          "name": "amount",
          "type": "uint256"
        },
        {
          "internalType": "bytes32",
          "name": "ticker",
          "type": "bytes32"
        }
      ],
      "name": "withdraw",
      "outputs": [],
      "stateMutability": "nonpayable",
      "type": "function"
    },
    {
      "inputs": [
        {
          "internalType": "uint256",
          "name": "amount",
          "type": "uint256"
        }
      ],
      "name": "withdrawEth",
      "outputs": [],
      "stateMutability": "nonpayable",
      "type": "function"
    },
    {
      "inputs": [
        {
          "internalType": "bytes32",
          "name": "ticker",
          "type": "bytes32"
        },
        {
          "internalType": "enum Dex.Side",
          "name": "side",
          "type": "uint8"
        }
      ],
      "name": "getOrderBook",
      "outputs": [
        {
          "components": [
            {
              "internalType": "uint256",
              "name": "id",
              "type": "uint256"
            },
            {
              "internalType": "address",
              "name": "trader",
              "type": "address"
            },
            {
              "internalType": "enum Dex.Side",
              "name": "side",
              "type": "uint8"
            },
            {
              "internalType": "bytes32",
              "name": "ticker",
              "type": "bytes32"
            },
            {
              "internalType": "uint256",
              "name": "amount",
              "type": "uint256"
            },
            {
              "internalType": "uint256",
              "name": "price",
              "type": "uint256"
            }
          ],
          "internalType": "struct Dex.Order[]",
          "name": "",
          "type": "tuple[]"
        }
      ],
      "stateMutability": "view",
      "type": "function"
    },
    {
      "inputs": [
        {
          "internalType": "enum Dex.Side",
          "name": "side",
          "type": "uint8"
        },
        {
          "internalType": "bytes32",
          "name": "ticker",
          "type": "bytes32"
        },
        {
          "internalType": "uint256",
          "name": "amount",
          "type": "uint256"
        },
        {
          "internalType": "uint256",
          "name": "price",
          "type": "uint256"
        }
      ],
      "name": "createLimitOrder",
      "outputs": [],
      "stateMutability": "nonpayable",
      "type": "function"
    }
  ],
  "bytecode": "0x6080604052600060045534801561001557600080fd5b5060006100266100c960201b60201c565b9050806000806101000a81548173ffffffffffffffffffffffffffffffffffffffff021916908373ffffffffffffffffffffffffffffffffffffffff1602179055508073ffffffffffffffffffffffffffffffffffffffff16600073ffffffffffffffffffffffffffffffffffffffff167f8be0079c531659141344cd1fd0a4f28419497f9722a3daafe3b4186f6b6457e060405160405180910390a3506100d1565b600033905090565b612aca80620000e16000396000f3fe6080604052600436106100e85760003560e01c80639776aacf1161008a578063c311d04911610059578063c311d049146102d4578063c9630cb0146102fd578063f2fde38b14610326578063f85024021461034f576100e8565b80639776aacf146102085780639ead722214610231578063a8d2021a1461026e578063ba58ea6814610297576100e8565b8063667cb4ba116100c6578063667cb4ba1461015f5780636f3b62f91461019d578063715018a6146101c65780638da5cb5b146101dd576100e8565b80631f14df69146100ed5780632a58b3301461012a578063439370b114610155575b600080fd5b3480156100f957600080fd5b50610114600480360381019061010f9190612177565b610391565b604051610121919061269c565b60405180910390f35b34801561013657600080fd5b5061013f6103b6565b60405161014c919061269c565b60405180910390f35b61015d6103bc565b005b34801561016b57600080fd5b50610186600480360381019061018191906121dc565b6104b5565b604051610194929190612633565b60405180910390f35b3480156101a957600080fd5b506101c460048036038101906101bf91906122cc565b6104f9565b005b3480156101d257600080fd5b506101db6113bb565b005b3480156101e957600080fd5b506101f26114f5565b6040516101ff919061257b565b60405180910390f35b34801561021457600080fd5b5061022f600480360381019061022a9190612205565b61151e565b005b34801561023d57600080fd5b506102586004803603810190610253919061232f565b611659565b6040516102659190612618565b60405180910390f35b34801561027a57600080fd5b5061029560048036038101906102909190612358565b61167d565b005b3480156102a357600080fd5b506102be60048036038101906102b99190612241565b6118cb565b6040516102cb91906125f6565b60405180910390f35b3480156102e057600080fd5b506102fb60048036038101906102f6919061232f565b611a8c565b005b34801561030957600080fd5b50610324600480360381019061031f9190612358565b611c6c565b005b34801561033257600080fd5b5061034d6004803603810190610348919061214e565b611e5f565b005b34801561035b57600080fd5b506103766004803603810190610371919061227d565b612008565b604051610388969594939291906126b7565b60405180910390f35b6003602052816000526040600020602052806000526040600020600091509150505481565b60045481565b61043f34600360003373ffffffffffffffffffffffffffffffffffffffff1673ffffffffffffffffffffffffffffffffffffffff16815260200190815260200160002060007f455448000000000000000000000000000000000000000000000000000000000081526020019081526020016000205461209b90919063ffffffff16565b600360003373ffffffffffffffffffffffffffffffffffffffff1673ffffffffffffffffffffffffffffffffffffffff16815260200190815260200160002060007f4554480000000000000000000000000000000000000000000000000000000000815260200190815260200160002081905550565b60016020528060005260406000206000915090508060000154908060010160009054906101000a900473ffffffffffffffffffffffffffffffffffffffff16905082565b60006001811115610533577f4e487b7100000000000000000000000000000000000000000000000000000000600052602160045260246000fd5b84600181111561056c577f4e487b7100000000000000000000000000000000000000000000000000000000600052602160045260246000fd5b14156106065761058581836120b190919063ffffffff16565b600360003373ffffffffffffffffffffffffffffffffffffffff1673ffffffffffffffffffffffffffffffffffffffff16815260200190815260200160002060007f4554480000000000000000000000000000000000000000000000000000000000815260200190815260200160002054101561060157600080fd5b6106ef565b60018081111561063f577f4e487b7100000000000000000000000000000000000000000000000000000000600052602160045260246000fd5b846001811115610678577f4e487b7100000000000000000000000000000000000000000000000000000000600052602160045260246000fd5b14156106ee5761069181836120b190919063ffffffff16565b600360003373ffffffffffffffffffffffffffffffffffffffff1673ffffffffffffffffffffffffffffffffffffffff16815260200190815260200160002060008581526020019081526020016000205410156106ed57600080fd5b5b5b600060056000858152602001908152602001600020600086600181111561073f577f4e487b7100000000000000000000000000000000000000000000000000000000600052602160045260246000fd5b81526020019081526020016000209050806040518060c0016040528060045481526020013373ffffffffffffffffffffffffffffffffffffffff1681526020018760018111156107b8577f4e487b7100000000000000000000000000000000000000000000000000000000600052602160045260246000fd5b81526020018681526020018581526020018481525090806001815401808255809150506001900390600052602060002090600502016000909190919091506000820151816000015560208201518160010160006101000a81548173ffffffffffffffffffffffffffffffffffffffff021916908373ffffffffffffffffffffffffffffffffffffffff16021790555060408201518160010160146101000a81548160ff02191690836001811115610898577f4e487b7100000000000000000000000000000000000000000000000000000000600052602160045260246000fd5b0217905550606082015181600201556080820151816003015560a082015181600401555050600460008154809291906108d0906128f2565b91905055506000808280549050116108e95760006108fb565b600182805490506108fa919061281d565b5b905060006001811115610937577f4e487b7100000000000000000000000000000000000000000000000000000000600052602160045260246000fd5b866001811115610970577f4e487b7100000000000000000000000000000000000000000000000000000000600052602160045260246000fd5b1415610e5057600090505b6000811115610e4b578181815481106109bd577f4e487b7100000000000000000000000000000000000000000000000000000000600052603260045260246000fd5b906000526020600020906005020160040154826001836109dd919061281d565b81548110610a14577f4e487b7100000000000000000000000000000000000000000000000000000000600052603260045260246000fd5b9060005260206000209060050201600401541115610a3157610e4b565b600082600183610a41919061281d565b81548110610a78577f4e487b7100000000000000000000000000000000000000000000000000000000600052603260045260246000fd5b90600052602060002090600502016040518060c0016040529081600082015481526020016001820160009054906101000a900473ffffffffffffffffffffffffffffffffffffffff1673ffffffffffffffffffffffffffffffffffffffff1673ffffffffffffffffffffffffffffffffffffffff1681526020016001820160149054906101000a900460ff166001811115610b3c577f4e487b7100000000000000000000000000000000000000000000000000000000600052602160045260246000fd5b6001811115610b74577f4e487b7100000000000000000000000000000000000000000000000000000000600052602160045260246000fd5b815260200160028201548152602001600382015481526020016004820154815250509050828281548110610bd1577f4e487b7100000000000000000000000000000000000000000000000000000000600052603260045260246000fd5b906000526020600020906005020183600184610bed919061281d565b81548110610c24577f4e487b7100000000000000000000000000000000000000000000000000000000600052603260045260246000fd5b9060005260206000209060050201600082015481600001556001820160009054906101000a900473ffffffffffffffffffffffffffffffffffffffff168160010160006101000a81548173ffffffffffffffffffffffffffffffffffffffff021916908373ffffffffffffffffffffffffffffffffffffffff1602179055506001820160149054906101000a900460ff168160010160146101000a81548160ff02191690836001811115610d01577f4e487b7100000000000000000000000000000000000000000000000000000000600052602160045260246000fd5b021790555060028201548160020155600382015481600301556004820154816004015590505080838381548110610d61577f4e487b7100000000000000000000000000000000000000000000000000000000600052603260045260246000fd5b90600052602060002090600502016000820151816000015560208201518160010160006101000a81548173ffffffffffffffffffffffffffffffffffffffff021916908373ffffffffffffffffffffffffffffffffffffffff16021790555060408201518160010160146101000a81548160ff02191690836001811115610e11577f4e487b7100000000000000000000000000000000000000000000000000000000600052602160045260246000fd5b0217905550606082015181600201556080820151816003015560a082015181600401559050508180610e42906128c8565b9250505061097b565b61139b565b600180811115610e89577f4e487b7100000000000000000000000000000000000000000000000000000000600052602160045260246000fd5b866001811115610ec2577f4e487b7100000000000000000000000000000000000000000000000000000000600052602160045260246000fd5b141561139a575b600081111561139957818181548110610f0b577f4e487b7100000000000000000000000000000000000000000000000000000000600052603260045260246000fd5b90600052602060002090600502016004015482600183610f2b919061281d565b81548110610f62577f4e487b7100000000000000000000000000000000000000000000000000000000600052603260045260246000fd5b9060005260206000209060050201600401541115610f7f57611399565b600082600183610f8f919061276d565b81548110610fc6577f4e487b7100000000000000000000000000000000000000000000000000000000600052603260045260246000fd5b90600052602060002090600502016040518060c0016040529081600082015481526020016001820160009054906101000a900473ffffffffffffffffffffffffffffffffffffffff1673ffffffffffffffffffffffffffffffffffffffff1673ffffffffffffffffffffffffffffffffffffffff1681526020016001820160149054906101000a900460ff16600181111561108a577f4e487b7100000000000000000000000000000000000000000000000000000000600052602160045260246000fd5b60018111156110c2577f4e487b7100000000000000000000000000000000000000000000000000000000600052602160045260246000fd5b81526020016002820154815260200160038201548152602001600482015481525050905082828154811061111f577f4e487b7100000000000000000000000000000000000000000000000000000000600052603260045260246000fd5b90600052602060002090600502018360018461113b919061281d565b81548110611172577f4e487b7100000000000000000000000000000000000000000000000000000000600052603260045260246000fd5b9060005260206000209060050201600082015481600001556001820160009054906101000a900473ffffffffffffffffffffffffffffffffffffffff168160010160006101000a81548173ffffffffffffffffffffffffffffffffffffffff021916908373ffffffffffffffffffffffffffffffffffffffff1602179055506001820160149054906101000a900460ff168160010160146101000a81548160ff0219169083600181111561124f577f4e487b7100000000000000000000000000000000000000000000000000000000600052602160045260246000fd5b0217905550600282015481600201556003820154816003015560048201548160040155905050808383815481106112af577f4e487b7100000000000000000000000000000000000000000000000000000000600052603260045260246000fd5b90600052602060002090600502016000820151816000015560208201518160010160006101000a81548173ffffffffffffffffffffffffffffffffffffffff021916908373ffffffffffffffffffffffffffffffffffffffff16021790555060408201518160010160146101000a81548160ff0219169083600181111561135f577f4e487b7100000000000000000000000000000000000000000000000000000000600052602160045260246000fd5b0217905550606082015181600201556080820151816003015560a082015181600401559050508180611390906128c8565b92505050610ec9565b5b5b600460008154809291906113ae906128f2565b9190505550505050505050565b6113c36120c7565b73ffffffffffffffffffffffffffffffffffffffff166113e16114f5565b73ffffffffffffffffffffffffffffffffffffffff1614611437576040517f08c379a000000000000000000000000000000000000000000000000000000000815260040161142e9061267c565b60405180910390fd5b600073ffffffffffffffffffffffffffffffffffffffff1660008054906101000a900473ffffffffffffffffffffffffffffffffffffffff1673ffffffffffffffffffffffffffffffffffffffff167f8be0079c531659141344cd1fd0a4f28419497f9722a3daafe3b4186f6b6457e060405160405180910390a360008060006101000a81548173ffffffffffffffffffffffffffffffffffffffff021916908373ffffffffffffffffffffffffffffffffffffffff160217905550565b60008060009054906101000a900473ffffffffffffffffffffffffffffffffffffffff16905090565b6115266120c7565b73ffffffffffffffffffffffffffffffffffffffff166115446114f5565b73ffffffffffffffffffffffffffffffffffffffff161461159a576040517f08c379a00000000000000000000000000000000000000000000000000000000081526004016115919061267c565b60405180910390fd5b60405180604001604052808381526020018273ffffffffffffffffffffffffffffffffffffffff16815250600160008481526020019081526020016000206000820151816000015560208201518160010160006101000a81548173ffffffffffffffffffffffffffffffffffffffff021916908373ffffffffffffffffffffffffffffffffffffffff16021790555090505060028290806001815401808255809150506001900390600052602060002001600090919091909150555050565b6002818154811061166957600080fd5b906000526020600020016000915090505481565b80600073ffffffffffffffffffffffffffffffffffffffff166001600083815260200190815260200160002060010160009054906101000a900473ffffffffffffffffffffffffffffffffffffffff1673ffffffffffffffffffffffffffffffffffffffff1614156116ee57600080fd5b82600360003373ffffffffffffffffffffffffffffffffffffffff1673ffffffffffffffffffffffffffffffffffffffff168152602001908152602001600020600084815260200190815260200160002054101561174b57600080fd5b6117ae83600360003373ffffffffffffffffffffffffffffffffffffffff1673ffffffffffffffffffffffffffffffffffffffff1681526020019081526020016000206000858152602001908152602001600020546120cf90919063ffffffff16565b600360003373ffffffffffffffffffffffffffffffffffffffff1673ffffffffffffffffffffffffffffffffffffffff1681526020019081526020016000206000848152602001908152602001600020819055506001600083815260200190815260200160002060010160009054906101000a900473ffffffffffffffffffffffffffffffffffffffff1673ffffffffffffffffffffffffffffffffffffffff1663a9059cbb33856040518363ffffffff1660e01b81526004016118739291906125cd565b602060405180830381600087803b15801561188d57600080fd5b505af11580156118a1573d6000803e3d6000fd5b505050506040513d601f19601f820116820180604052508101906118c591906121b3565b50505050565b606060056000848152602001908152602001600020600083600181111561191b577f4e487b7100000000000000000000000000000000000000000000000000000000600052602160045260246000fd5b8152602001908152602001600020805480602002602001604051908101604052809291908181526020016000905b82821015611a8057838290600052602060002090600502016040518060c0016040529081600082015481526020016001820160009054906101000a900473ffffffffffffffffffffffffffffffffffffffff1673ffffffffffffffffffffffffffffffffffffffff1673ffffffffffffffffffffffffffffffffffffffff1681526020016001820160149054906101000a900460ff166001811115611a17577f4e487b7100000000000000000000000000000000000000000000000000000000600052602160045260246000fd5b6001811115611a4f577f4e487b7100000000000000000000000000000000000000000000000000000000600052602160045260246000fd5b8152602001600282015481526020016003820154815260200160048201548152505081526020019060010190611949565b50505050905092915050565b80600360003373ffffffffffffffffffffffffffffffffffffffff1673ffffffffffffffffffffffffffffffffffffffff16815260200190815260200160002060007f45544800000000000000000000000000000000000000000000000000000000008152602001908152602001600020541015611b0957600080fd5b611b8c81600360003373ffffffffffffffffffffffffffffffffffffffff1673ffffffffffffffffffffffffffffffffffffffff16815260200190815260200160002060007f45544800000000000000000000000000000000000000000000000000000000008152602001908152602001600020546120cf90919063ffffffff16565b600360003373ffffffffffffffffffffffffffffffffffffffff1673ffffffffffffffffffffffffffffffffffffffff16815260200190815260200160002060007f45544800000000000000000000000000000000000000000000000000000000008152602001908152602001600020819055503373ffffffffffffffffffffffffffffffffffffffff1681604051611c2490612566565b60006040518083038185875af1925050503d8060008114611c61576040519150601f19603f3d011682016040523d82523d6000602084013e611c66565b606091505b50505050565b80600073ffffffffffffffffffffffffffffffffffffffff166001600083815260200190815260200160002060010160009054906101000a900473ffffffffffffffffffffffffffffffffffffffff1673ffffffffffffffffffffffffffffffffffffffff161415611cdd57600080fd5b6001600083815260200190815260200160002060010160009054906101000a900473ffffffffffffffffffffffffffffffffffffffff1673ffffffffffffffffffffffffffffffffffffffff166323b872dd3330866040518463ffffffff1660e01b8152600401611d5093929190612596565b602060405180830381600087803b158015611d6a57600080fd5b505af1158015611d7e573d6000803e3d6000fd5b505050506040513d601f19601f82011682018060405250810190611da291906121b3565b50611e0683600360003373ffffffffffffffffffffffffffffffffffffffff1673ffffffffffffffffffffffffffffffffffffffff16815260200190815260200160002060008581526020019081526020016000205461209b90919063ffffffff16565b600360003373ffffffffffffffffffffffffffffffffffffffff1673ffffffffffffffffffffffffffffffffffffffff168152602001908152602001600020600084815260200190815260200160002081905550505050565b611e676120c7565b73ffffffffffffffffffffffffffffffffffffffff16611e856114f5565b73ffffffffffffffffffffffffffffffffffffffff1614611edb576040517f08c379a0000000000000000000000000000000000000000000000000000000008152600401611ed29061267c565b60405180910390fd5b600073ffffffffffffffffffffffffffffffffffffffff168173ffffffffffffffffffffffffffffffffffffffff161415611f4b576040517f08c379a0000000000000000000000000000000000000000000000000000000008152600401611f429061265c565b60405180910390fd5b8073ffffffffffffffffffffffffffffffffffffffff1660008054906101000a900473ffffffffffffffffffffffffffffffffffffffff1673ffffffffffffffffffffffffffffffffffffffff167f8be0079c531659141344cd1fd0a4f28419497f9722a3daafe3b4186f6b6457e060405160405180910390a3806000806101000a81548173ffffffffffffffffffffffffffffffffffffffff021916908373ffffffffffffffffffffffffffffffffffffffff16021790555050565b6005602052826000526040600020602052816000526040600020818154811061203057600080fd5b906000526020600020906005020160009250925050508060000154908060010160009054906101000a900473ffffffffffffffffffffffffffffffffffffffff16908060010160149054906101000a900460ff16908060020154908060030154908060040154905086565b600081836120a9919061276d565b905092915050565b600081836120bf91906127c3565b905092915050565b600033905090565b600081836120dd919061281d565b905092915050565b6000813590506120f481612a28565b92915050565b60008151905061210981612a3f565b92915050565b60008135905061211e81612a56565b92915050565b60008135905061213381612a6d565b92915050565b60008135905061214881612a7d565b92915050565b60006020828403121561216057600080fd5b600061216e848285016120e5565b91505092915050565b6000806040838503121561218a57600080fd5b6000612198858286016120e5565b92505060206121a98582860161210f565b9150509250929050565b6000602082840312156121c557600080fd5b60006121d3848285016120fa565b91505092915050565b6000602082840312156121ee57600080fd5b60006121fc8482850161210f565b91505092915050565b6000806040838503121561221857600080fd5b60006122268582860161210f565b9250506020612237858286016120e5565b9150509250929050565b6000806040838503121561225457600080fd5b60006122628582860161210f565b925050602061227385828601612124565b9150509250929050565b60008060006060848603121561229257600080fd5b60006122a08682870161210f565b93505060206122b186828701612139565b92505060406122c286828701612139565b9150509250925092565b600080600080608085870312156122e257600080fd5b60006122f087828801612124565b94505060206123018782880161210f565b935050604061231287828801612139565b925050606061232387828801612139565b91505092959194509250565b60006020828403121561234157600080fd5b600061234f84828501612139565b91505092915050565b6000806040838503121561236b57600080fd5b600061237985828601612139565b925050602061238a8582860161210f565b9150509250929050565b60006123a083836124cd565b60c08301905092915050565b6123b581612851565b82525050565b6123c481612851565b82525050565b60006123d582612728565b6123df8185612740565b93506123ea83612718565b8060005b8381101561241b5781516124028882612394565b975061240d83612733565b9250506001810190506123ee565b5085935050505092915050565b6124318161286f565b82525050565b6124408161286f565b82525050565b61244f816128b6565b82525050565b61245e816128b6565b82525050565b600061247160268361275c565b915061247c82612999565b604082019050919050565b600061249460208361275c565b915061249f826129e8565b602082019050919050565b60006124b7600083612751565b91506124c282612a11565b600082019050919050565b60c0820160008201516124e36000850182612548565b5060208201516124f660208501826123ac565b5060408201516125096040850182612446565b50606082015161251c6060850182612428565b50608082015161252f6080850182612548565b5060a082015161254260a0850182612548565b50505050565b612551816128ac565b82525050565b612560816128ac565b82525050565b6000612571826124aa565b9150819050919050565b600060208201905061259060008301846123bb565b92915050565b60006060820190506125ab60008301866123bb565b6125b860208301856123bb565b6125c56040830184612557565b949350505050565b60006040820190506125e260008301856123bb565b6125ef6020830184612557565b9392505050565b6000602082019050818103600083015261261081846123ca565b905092915050565b600060208201905061262d6000830184612437565b92915050565b60006040820190506126486000830185612437565b61265560208301846123bb565b9392505050565b6000602082019050818103600083015261267581612464565b9050919050565b6000602082019050818103600083015261269581612487565b9050919050565b60006020820190506126b16000830184612557565b92915050565b600060c0820190506126cc6000830189612557565b6126d960208301886123bb565b6126e66040830187612455565b6126f36060830186612437565b6127006080830185612557565b61270d60a0830184612557565b979650505050505050565b6000819050602082019050919050565b600081519050919050565b6000602082019050919050565b600082825260208201905092915050565b600081905092915050565b600082825260208201905092915050565b6000612778826128ac565b9150612783836128ac565b9250827fffffffffffffffffffffffffffffffffffffffffffffffffffffffffffffffff038211156127b8576127b761293b565b5b828201905092915050565b60006127ce826128ac565b91506127d9836128ac565b9250817fffffffffffffffffffffffffffffffffffffffffffffffffffffffffffffffff04831182151516156128125761281161293b565b5b828202905092915050565b6000612828826128ac565b9150612833836128ac565b9250828210156128465761284561293b565b5b828203905092915050565b600061285c8261288c565b9050919050565b60008115159050919050565b6000819050919050565b600081905061288782612a14565b919050565b600073ffffffffffffffffffffffffffffffffffffffff82169050919050565b6000819050919050565b60006128c182612879565b9050919050565b60006128d3826128ac565b915060008214156128e7576128e661293b565b5b600182039050919050565b60006128fd826128ac565b91507fffffffffffffffffffffffffffffffffffffffffffffffffffffffffffffffff8214156129305761292f61293b565b5b600182019050919050565b7f4e487b7100000000000000000000000000000000000000000000000000000000600052601160045260246000fd5b7f4e487b7100000000000000000000000000000000000000000000000000000000600052602160045260246000fd5b7f4f776e61626c653a206e6577206f776e657220697320746865207a65726f206160008201527f6464726573730000000000000000000000000000000000000000000000000000602082015250565b7f4f776e61626c653a2063616c6c6572206973206e6f7420746865206f776e6572600082015250565b50565b60028110612a2557612a2461296a565b5b50565b612a3181612851565b8114612a3c57600080fd5b50565b612a4881612863565b8114612a5357600080fd5b50565b612a5f8161286f565b8114612a6a57600080fd5b50565b60028110612a7a57600080fd5b50565b612a86816128ac565b8114612a9157600080fd5b5056fea26469706673582212201c16aef58f82541f5bb81ccbc89cc226e3296d6181e26f826cc3c98d97d7e01564736f6c63430008040033",
  "immutableReferences": {},
  "source": "// SPDX-License-Identifier: MIT\r\npragma solidity ^0.8.0;\r\npragma experimental ABIEncoderV2;\r\nimport \"./Wallet.sol\";\r\nimport \"../@openzeppelin/contracts/utils/math/SafeMath.sol\";\r\n\r\ncontract Dex is Wallet { \r\n    using SafeMath for uint256;\r\n    enum Side {\r\n        BUY,\r\n        SELL\r\n    }\r\n    struct Order {\r\n        uint id;\r\n        address trader;\r\n        Side side;\r\n        bytes32 ticker;\r\n        uint amount;\r\n        uint price;\r\n    }\r\n    uint public nextOrderId = 0;\r\n    mapping(bytes32 => mapping(uint => Order[])) public orderbook;\r\n    \r\n    function getOrderBook(bytes32 ticker, Side side) view public returns(Order[] memory){\r\n        return orderbook[ticker][uint(side)];\r\n    }\r\n    function createLimitOrder(Side side, bytes32 ticker, uint amount, uint price) public {\r\n        if(side == Side.BUY){\r\n            require(balances[msg.sender][\"ETH\"] >= amount.mul(price));\r\n        }\r\n        else if(side == Side.SELL) {\r\n            require(balances[msg.sender][ticker] >= amount.mul(price));\r\n        }\r\n        Order[] storage orders = orderbook[ticker][uint(side)];\r\n        orders.push(\r\n            Order(nextOrderId, msg.sender, side, ticker, amount, price)\r\n        );\r\n        nextOrderId++;\r\n    //bubble sort\r\n    uint i = orders.length > 0 ? orders.length -1:0;\r\n        if(side==Side.BUY){\r\n            i=0;\r\n            while(i>0){\r\n                if(orders[i-1].price > orders[i].price){\r\n                    break;\r\n                }\r\n                Order memory orderToMove = orders[i-1];\r\n                orders[i-1] = orders[i];\r\n                orders[i] = orderToMove;\r\n                i--;\r\n            }\r\n        } else if(side == Side.SELL) {\r\n    while(i>0){\r\n        if(orders[i - 1].price > orders[i].price){\r\n            break;\r\n        }\r\n        Order memory orderToMove = orders[i+1];\r\n        orders[i-1] = orders[i];\r\n        orders[i] = orderToMove;\r\n        i--;\r\n        }\r\n    } \r\n    nextOrderId++;  \r\n    }    \r\n}",
  "sourcePath": "C:/Users/samue/DEX/contracts/dex.sol",
  "compiler": {
    "name": "solc",
    "version": "0.8.4+commit.c7e474f2.Emscripten.clang"
  },
  "schemaVersion": "3.3.4",
  "updatedAt": "2021-04-29T16:07:52.631Z",
  "devdoc": {
    "kind": "dev",
    "methods": {
      "owner()": {
        "details": "Returns the address of the current owner."
      },
      "renounceOwnership()": {
        "details": "Leaves the contract without owner. It will not be possible to call `onlyOwner` functions anymore. Can only be called by the current owner. NOTE: Renouncing ownership will leave the contract without an owner, thereby removing any functionality that is only available to the owner."
      },
      "transferOwnership(address)": {
        "details": "Transfers ownership of the contract to a new account (`newOwner`). Can only be called by the current owner."
      }
    },
    "version": 1
  },
  "userdoc": {
    "kind": "user",
    "methods": {},
    "version": 1
  }
}