{
  "contractName": "Wallet",
  "abi": [
    {
      "anonymous": false,
      "inputs": [
        {
          "indexed": true,
          "internalType": "address",
          "name": "previousOwner",
          "type": "address"
        },
        {
          "indexed": true,
          "internalType": "address",
          "name": "newOwner",
          "type": "address"
        }
      ],
      "name": "OwnershipTransferred",
      "type": "event"
    },
    {
      "inputs": [
        {
          "internalType": "address",
          "name": "",
          "type": "address"
        },
        {
          "internalType": "bytes32",
          "name": "",
          "type": "bytes32"
        }
      ],
      "name": "balances",
      "outputs": [
        {
          "internalType": "uint256",
          "name": "",
          "type": "uint256"
        }
      ],
      "stateMutability": "view",
      "type": "function"
    },
    {
      "inputs": [],
      "name": "owner",
      "outputs": [
        {
          "internalType": "address",
          "name": "",
          "type": "address"
        }
      ],
      "stateMutability": "view",
      "type": "function"
    },
    {
      "inputs": [],
      "name": "renounceOwnership",
      "outputs": [],
      "stateMutability": "nonpayable",
      "type": "function"
    },
    {
      "inputs": [
        {
          "internalType": "uint256",
          "name": "",
          "type": "uint256"
        }
      ],
      "name": "tokenList",
      "outputs": [
        {
          "internalType": "bytes32",
          "name": "",
          "type": "bytes32"
        }
      ],
      "stateMutability": "view",
      "type": "function"
    },
    {
      "inputs": [
        {
          "internalType": "bytes32",
          "name": "",
          "type": "bytes32"
        }
      ],
      "name": "tokenMapping",
      "outputs": [
        {
          "internalType": "bytes32",
          "name": "ticker",
          "type": "bytes32"
        },
        {
          "internalType": "address",
          "name": "tokenAddress",
          "type": "address"
        }
      ],
      "stateMutability": "view",
      "type": "function"
    },
    {
      "inputs": [
        {
          "internalType": "address",
          "name": "newOwner",
          "type": "address"
        }
      ],
      "name": "transferOwnership",
      "outputs": [],
      "stateMutability": "nonpayable",
      "type": "function"
    },
    {
      "inputs": [
        {
          "internalType": "bytes32",
          "name": "ticker",
          "type": "bytes32"
        },
        {
          "internalType": "address",
          "name": "tokenAddress",
          "type": "address"
        }
      ],
      "name": "addToken",
      "outputs": [],
      "stateMutability": "nonpayable",
      "type": "function"
    },
    {
      "inputs": [
        {
          "internalType": "uint256",
          "name": "amount",
          "type": "uint256"
        },
        {
          "internalType": "bytes32",
          "name": "ticker",
          "type": "bytes32"
        }
      ],
      "name": "deposit",
      "outputs": [],
      "stateMutability": "nonpayable",
      "type": "function"
    },
    {
      "inputs": [
        {
          "internalType": "uint256",
          "name": "amount",
          "type": "uint256"
        },
        {
          "internalType": "bytes32",
          "name": "ticker",
          "type": "bytes32"
        }
      ],
      "name": "withdraw",
      "outputs": [],
      "stateMutability": "nonpayable",
      "type": "function"
    },
    {
      "inputs": [],
      "name": "depositEth",
      "outputs": [],
      "stateMutability": "payable",
      "type": "function"
    },
    {
      "inputs": [
        {
          "internalType": "uint256",
          "name": "amount",
          "type": "uint256"
        }
      ],
      "name": "withdrawEth",
      "outputs": [],
      "stateMutability": "nonpayable",
      "type": "function"
    }
  ],
  "bytecode": "0x608060405234801561001057600080fd5b5060006100216100c460201b60201c565b9050806000806101000a81548173ffffffffffffffffffffffffffffffffffffffff021916908373ffffffffffffffffffffffffffffffffffffffff1602179055508073ffffffffffffffffffffffffffffffffffffffff16600073ffffffffffffffffffffffffffffffffffffffff167f8be0079c531659141344cd1fd0a4f28419497f9722a3daafe3b4186f6b6457e060405160405180910390a3506100cc565b600033905090565b611439806100db6000396000f3fe60806040526004361061009c5760003560e01c80639776aacf116100645780639776aacf146101685780639ead722214610191578063a8d2021a146101ce578063c311d049146101f7578063c9630cb014610220578063f2fde38b146102495761009c565b80631f14df69146100a1578063439370b1146100de578063667cb4ba146100e8578063715018a6146101265780638da5cb5b1461013d575b600080fd5b3480156100ad57600080fd5b506100c860048036038101906100c39190610f11565b610272565b6040516100d591906111ea565b60405180910390f35b6100e6610297565b005b3480156100f457600080fd5b5061010f600480360381019061010a9190610f76565b610390565b60405161011d929190611181565b60405180910390f35b34801561013257600080fd5b5061013b6103d4565b005b34801561014957600080fd5b5061015261050e565b60405161015f91906110eb565b60405180910390f35b34801561017457600080fd5b5061018f600480360381019061018a9190610f9f565b610537565b005b34801561019d57600080fd5b506101b860048036038101906101b39190610fdb565b610672565b6040516101c59190611166565b60405180910390f35b3480156101da57600080fd5b506101f560048036038101906101f09190611004565b610696565b005b34801561020357600080fd5b5061021e60048036038101906102199190610fdb565b6108e4565b005b34801561022c57600080fd5b5061024760048036038101906102429190611004565b610ac4565b005b34801561025557600080fd5b50610270600480360381019061026b9190610ee8565b610cb7565b005b6003602052816000526040600020602052806000526040600020600091509150505481565b61031a34600360003373ffffffffffffffffffffffffffffffffffffffff1673ffffffffffffffffffffffffffffffffffffffff16815260200190815260200160002060007f4554480000000000000000000000000000000000000000000000000000000000815260200190815260200160002054610e6090919063ffffffff16565b600360003373ffffffffffffffffffffffffffffffffffffffff1673ffffffffffffffffffffffffffffffffffffffff16815260200190815260200160002060007f4554480000000000000000000000000000000000000000000000000000000000815260200190815260200160002081905550565b60016020528060005260406000206000915090508060000154908060010160009054906101000a900473ffffffffffffffffffffffffffffffffffffffff16905082565b6103dc610e76565b73ffffffffffffffffffffffffffffffffffffffff166103fa61050e565b73ffffffffffffffffffffffffffffffffffffffff1614610450576040517f08c379a0000000000000000000000000000000000000000000000000000000008152600401610447906111ca565b60405180910390fd5b600073ffffffffffffffffffffffffffffffffffffffff1660008054906101000a900473ffffffffffffffffffffffffffffffffffffffff1673ffffffffffffffffffffffffffffffffffffffff167f8be0079c531659141344cd1fd0a4f28419497f9722a3daafe3b4186f6b6457e060405160405180910390a360008060006101000a81548173ffffffffffffffffffffffffffffffffffffffff021916908373ffffffffffffffffffffffffffffffffffffffff160217905550565b60008060009054906101000a900473ffffffffffffffffffffffffffffffffffffffff16905090565b61053f610e76565b73ffffffffffffffffffffffffffffffffffffffff1661055d61050e565b73ffffffffffffffffffffffffffffffffffffffff16146105b3576040517f08c379a00000000000000000000000000000000000000000000000000000000081526004016105aa906111ca565b60405180910390fd5b60405180604001604052808381526020018273ffffffffffffffffffffffffffffffffffffffff16815250600160008481526020019081526020016000206000820151816000015560208201518160010160006101000a81548173ffffffffffffffffffffffffffffffffffffffff021916908373ffffffffffffffffffffffffffffffffffffffff16021790555090505060028290806001815401808255809150506001900390600052602060002001600090919091909150555050565b6002818154811061068257600080fd5b906000526020600020016000915090505481565b80600073ffffffffffffffffffffffffffffffffffffffff166001600083815260200190815260200160002060010160009054906101000a900473ffffffffffffffffffffffffffffffffffffffff1673ffffffffffffffffffffffffffffffffffffffff16141561070757600080fd5b82600360003373ffffffffffffffffffffffffffffffffffffffff1673ffffffffffffffffffffffffffffffffffffffff168152602001908152602001600020600084815260200190815260200160002054101561076457600080fd5b6107c783600360003373ffffffffffffffffffffffffffffffffffffffff1673ffffffffffffffffffffffffffffffffffffffff168152602001908152602001600020600085815260200190815260200160002054610e7e90919063ffffffff16565b600360003373ffffffffffffffffffffffffffffffffffffffff1673ffffffffffffffffffffffffffffffffffffffff1681526020019081526020016000206000848152602001908152602001600020819055506001600083815260200190815260200160002060010160009054906101000a900473ffffffffffffffffffffffffffffffffffffffff1673ffffffffffffffffffffffffffffffffffffffff1663a9059cbb33856040518363ffffffff1660e01b815260040161088c92919061113d565b602060405180830381600087803b1580156108a657600080fd5b505af11580156108ba573d6000803e3d6000fd5b505050506040513d601f19601f820116820180604052508101906108de9190610f4d565b50505050565b80600360003373ffffffffffffffffffffffffffffffffffffffff1673ffffffffffffffffffffffffffffffffffffffff16815260200190815260200160002060007f4554480000000000000000000000000000000000000000000000000000000000815260200190815260200160002054101561096157600080fd5b6109e481600360003373ffffffffffffffffffffffffffffffffffffffff1673ffffffffffffffffffffffffffffffffffffffff16815260200190815260200160002060007f4554480000000000000000000000000000000000000000000000000000000000815260200190815260200160002054610e7e90919063ffffffff16565b600360003373ffffffffffffffffffffffffffffffffffffffff1673ffffffffffffffffffffffffffffffffffffffff16815260200190815260200160002060007f45544800000000000000000000000000000000000000000000000000000000008152602001908152602001600020819055503373ffffffffffffffffffffffffffffffffffffffff1681604051610a7c906110d6565b60006040518083038185875af1925050503d8060008114610ab9576040519150601f19603f3d011682016040523d82523d6000602084013e610abe565b606091505b50505050565b80600073ffffffffffffffffffffffffffffffffffffffff166001600083815260200190815260200160002060010160009054906101000a900473ffffffffffffffffffffffffffffffffffffffff1673ffffffffffffffffffffffffffffffffffffffff161415610b3557600080fd5b6001600083815260200190815260200160002060010160009054906101000a900473ffffffffffffffffffffffffffffffffffffffff1673ffffffffffffffffffffffffffffffffffffffff166323b872dd3330866040518463ffffffff1660e01b8152600401610ba893929190611106565b602060405180830381600087803b158015610bc257600080fd5b505af1158015610bd6573d6000803e3d6000fd5b505050506040513d601f19601f82011682018060405250810190610bfa9190610f4d565b50610c5e83600360003373ffffffffffffffffffffffffffffffffffffffff1673ffffffffffffffffffffffffffffffffffffffff168152602001908152602001600020600085815260200190815260200160002054610e6090919063ffffffff16565b600360003373ffffffffffffffffffffffffffffffffffffffff1673ffffffffffffffffffffffffffffffffffffffff168152602001908152602001600020600084815260200190815260200160002081905550505050565b610cbf610e76565b73ffffffffffffffffffffffffffffffffffffffff16610cdd61050e565b73ffffffffffffffffffffffffffffffffffffffff1614610d33576040517f08c379a0000000000000000000000000000000000000000000000000000000008152600401610d2a906111ca565b60405180910390fd5b600073ffffffffffffffffffffffffffffffffffffffff168173ffffffffffffffffffffffffffffffffffffffff161415610da3576040517f08c379a0000000000000000000000000000000000000000000000000000000008152600401610d9a906111aa565b60405180910390fd5b8073ffffffffffffffffffffffffffffffffffffffff1660008054906101000a900473ffffffffffffffffffffffffffffffffffffffff1673ffffffffffffffffffffffffffffffffffffffff167f8be0079c531659141344cd1fd0a4f28419497f9722a3daafe3b4186f6b6457e060405160405180910390a3806000806101000a81548173ffffffffffffffffffffffffffffffffffffffff021916908373ffffffffffffffffffffffffffffffffffffffff16021790555050565b60008183610e6e9190611221565b905092915050565b600033905090565b60008183610e8c9190611277565b905092915050565b600081359050610ea3816113a7565b92915050565b600081519050610eb8816113be565b92915050565b600081359050610ecd816113d5565b92915050565b600081359050610ee2816113ec565b92915050565b600060208284031215610efa57600080fd5b6000610f0884828501610e94565b91505092915050565b60008060408385031215610f2457600080fd5b6000610f3285828601610e94565b9250506020610f4385828601610ebe565b9150509250929050565b600060208284031215610f5f57600080fd5b6000610f6d84828501610ea9565b91505092915050565b600060208284031215610f8857600080fd5b6000610f9684828501610ebe565b91505092915050565b60008060408385031215610fb257600080fd5b6000610fc085828601610ebe565b9250506020610fd185828601610e94565b9150509250929050565b600060208284031215610fed57600080fd5b6000610ffb84828501610ed3565b91505092915050565b6000806040838503121561101757600080fd5b600061102585828601610ed3565b925050602061103685828601610ebe565b9150509250929050565b611049816112ab565b82525050565b611058816112c9565b82525050565b600061106b602683611210565b91506110768261132c565b604082019050919050565b600061108e602083611210565b91506110998261137b565b602082019050919050565b60006110b1600083611205565b91506110bc826113a4565b600082019050919050565b6110d0816112f3565b82525050565b60006110e1826110a4565b9150819050919050565b60006020820190506111006000830184611040565b92915050565b600060608201905061111b6000830186611040565b6111286020830185611040565b61113560408301846110c7565b949350505050565b60006040820190506111526000830185611040565b61115f60208301846110c7565b9392505050565b600060208201905061117b600083018461104f565b92915050565b6000604082019050611196600083018561104f565b6111a36020830184611040565b9392505050565b600060208201905081810360008301526111c38161105e565b9050919050565b600060208201905081810360008301526111e381611081565b9050919050565b60006020820190506111ff60008301846110c7565b92915050565b600081905092915050565b600082825260208201905092915050565b600061122c826112f3565b9150611237836112f3565b9250827fffffffffffffffffffffffffffffffffffffffffffffffffffffffffffffffff0382111561126c5761126b6112fd565b5b828201905092915050565b6000611282826112f3565b915061128d836112f3565b9250828210156112a05761129f6112fd565b5b828203905092915050565b60006112b6826112d3565b9050919050565b60008115159050919050565b6000819050919050565b600073ffffffffffffffffffffffffffffffffffffffff82169050919050565b6000819050919050565b7f4e487b7100000000000000000000000000000000000000000000000000000000600052601160045260246000fd5b7f4f776e61626c653a206e6577206f776e657220697320746865207a65726f206160008201527f6464726573730000000000000000000000000000000000000000000000000000602082015250565b7f4f776e61626c653a2063616c6c6572206973206e6f7420746865206f776e6572600082015250565b50565b6113b0816112ab565b81146113bb57600080fd5b50565b6113c7816112bd565b81146113d257600080fd5b50565b6113de816112c9565b81146113e957600080fd5b50565b6113f5816112f3565b811461140057600080fd5b5056fea264697066735822122050d9ed922b780d28d878a4dd4348d2600e84997e25428b90371adff05b39d40064736f6c63430008040033",
  "immutableReferences": {},
  "source": "// SPDX-License-Identifier: MIT\r\npragma solidity ^0.8.0;\r\nimport \"../@openzeppelin/contracts/token/ERC20/IERC20.sol\";\r\nimport \"../@openzeppelin/contracts/utils/math/SafeMath.sol\";\r\nimport \"../@openzeppelin/contracts/access/Ownable.sol\";\r\n\r\ncontract Wallet is Ownable {\r\n    using SafeMath for uint256;\r\n        struct Token {\r\n            bytes32 ticker;\r\n            address tokenAddress;\r\n        }\r\n        mapping(bytes32 => Token) public tokenMapping;\r\n        bytes32[] public tokenList;\r\n        mapping(address => mapping(bytes32 => uint256)) public balances;\r\n\r\n    modifier tokenExist(bytes32 ticker) {\r\nrequire(tokenMapping[ticker].tokenAddress != address(0));\r\n_;\r\n}\r\n    function addToken(bytes32 ticker, address tokenAddress) external onlyOwner {\r\n    tokenMapping[ticker] = Token(ticker, tokenAddress);\r\n    tokenList.push(ticker);\r\n    }\r\n    function deposit(uint amount, bytes32 ticker) external tokenExist(ticker) {\r\n        IERC20(tokenMapping[ticker].tokenAddress).transferFrom(msg.sender, address(this), amount);\r\n        balances[msg.sender][ticker] = balances[msg.sender][ticker].add(amount);\r\n    }\r\n    function withdraw(uint amount, bytes32 ticker) external tokenExist(ticker) {\r\n        require(balances[msg.sender][ticker] >= (amount));\r\n        balances[msg.sender][ticker] = balances[msg.sender][ticker].sub(amount);\r\n        IERC20(tokenMapping[ticker].tokenAddress).transfer(msg.sender, amount);\r\n    }\r\n        function depositEth() payable external {\r\n        balances[msg.sender][bytes32(\"ETH\")] = balances[msg.sender][bytes32(\"ETH\")].add(msg.value);\r\n    }  \r\n    function withdrawEth(uint amount) external {\r\n        require(balances[msg.sender][bytes32(\"ETH\")] >= amount);\r\n        balances[msg.sender][bytes32(\"ETH\")] = balances[msg.sender][bytes32(\"ETH\")].sub(amount);\r\n        msg.sender.call{value:amount}(\"\");\r\n    }\r\n\r\n}\r\n",
  "sourcePath": "C:/Users/samue/DEX/contracts/wallet.sol",
  "compiler": {
    "name": "solc",
    "version": "0.8.4+commit.c7e474f2.Emscripten.clang"
  },
  "schemaVersion": "3.3.4",
  "updatedAt": "2021-04-29T16:07:52.657Z",
  "devdoc": {
    "kind": "dev",
    "methods": {
      "owner()": {
        "details": "Returns the address of the current owner."
      },
      "renounceOwnership()": {
        "details": "Leaves the contract without owner. It will not be possible to call `onlyOwner` functions anymore. Can only be called by the current owner. NOTE: Renouncing ownership will leave the contract without an owner, thereby removing any functionality that is only available to the owner."
      },
      "transferOwnership(address)": {
        "details": "Transfers ownership of the contract to a new account (`newOwner`). Can only be called by the current owner."
      }
    },
    "version": 1
  },
  "userdoc": {
    "kind": "user",
    "methods": {},
    "version": 1
  }
}